:100000000C9440000C9474000C9474000C94DE0664
:100010000C94DA060C94D6060C9474000C947400BC
:100020000C9474000C9474000C9474000C94740080
:100030000C9474000C9474000C9474000C949C0642
:100040000C9474000C9474000C9474000C94740060
:100050000C9474000C9474000C9474000C94740050
:100060000C94B6070C9474000C9474000C94340730
:100070000C942D070C943B070C9474005A087B0ACF
:1000800011241FBECFEFCDBFDFE3DEBF8091400064
:1000900080934000811105C098ED21E094BF20932A
:1000A00041008CBB18E3A0E0B8E3EEECFBE102C03A
:1000B00005900D92AC30B107D9F72AE3ACE0B8E374
:1000C00001C01D92A831B207E1F710E0CFE3D0E004
:1000D00004C02197FE010E94B90ACE33D107C9F7A7
:1000E0000E94DD090C94840D0C9400009F92AF9245
:1000F000BF92CF92DF92EF92FF920F931F93CF9315
:10010000DF93EC016B018885998511E0892B09F05B
:1001100010E8F601A0808A2D8123992493948111FF
:10012000912C2C813D814E815F8160E271EA87E0F4
:1001300090E00E94970A022FB12CE22EF12C0023AE
:1001400019F0C7010E9437018A858D7F843009F03C
:100150004FC08D858F3F89F09A2D912381E009F45E
:1001600080E0891551F0EF85F8898F899923D1F1C5
:100170009081892B808399249394E989FA898081DD
:10018000998D892B8083002319F0C7010E943701C4
:100190008E858F3F39F0EB89FC898081988D89238A
:1001A00009F0B12AE989FA899081898D809589239E
:1001B00080838E858F3F11F0F601B0828885998506
:1001C000892B09F044C0110F1111B9CFDF91CF91E4
:1001D0001F910F91FF90EF90DF90CF90BF90AF9065
:1001E0009F9008959081809589238083912CC5CF1D
:1001F000E989FA898081998D892B8083002319F000
:10020000C7010E9437018D858F3F49F0EF85F8893E
:100210008F899A2D9123B9F09081892B8083E98968
:10022000FA899081898D8095892380838E858F3F7F
:1002300009F4BFCFEB89FC898081988D892309F46B
:10024000B8CFB12AB6CF908180958923E7CF169594
:10025000BBCFFB018081000080932408809123089C
:1002600087FFFCCF80912408FB01808308958230B2
:10027000910538F0880F991F880F991F05970197EE
:10028000F1F708952FB7F89460914538709146388A
:1002900080914738909148382FBF0895AF92BF9210
:1002A000CF92DF92EF92FF920F931F93CF93DF9342
:1002B0006C017B018B01040F151FEB015E01AE1871
:1002C000BF08C017D10759F06991D601ED91FC9193
:1002D0000190F081E02DC6010995892B79F7C501C0
:1002E000DF91CF911F910F91FF90EF90DF90CF9012
:1002F000BF90AF900895FC0157854089252F30E0CD
:10030000842F90E0821B930B541710F0CF96089522
:1003100001970895FC0195858685981761F0A6855B
:10032000AE0FBF2FB11D51968C9196859F5F9F7325
:10033000968790E008958FEF9FEF0895FC019585D3
:100340008685981731F08685E80FF11D818990E048
:1003500008958FEF9FEF0895FC0195852685892FDD
:1003600090E0805C9F4F821B91098F7399270895BD
:10037000DC010FB607FE04C0809111018823B9F09B
:100380001896ED91FC911997848185FF10C01F96F6
:100390009C911F9750968C91981304C085818F7DF6
:1003A00085830895EFE4F8E3E8940C9449070895F1
:1003B0000F931F93CF93DF93EC018C8581608C8723
:1003C0009F85888998130BC0E885F985848185FF0E
:1003D00006C08C8581FD0EC080E4848313C0062F87
:1003E0001F851F5F1F738889811316C0CE010E946D
:1003F000B801F9CF85818F77806490E49483E88594
:10040000F9858583E885F985628381E090E0DF9155
:10041000CF911F910F910895EF85EC0FFD2FF11DE6
:10042000EF5AFF4F00831F878C85E885F98581FF90
:1004300009C085818F77806690E49483E885F9858B
:100440008583E3CF85818062FBCFCF93DF93EC017F
:100450008C85882361F0E885F985858185FD03C059
:10046000848186FD04C0CE010E94B801F4CFDF91E3
:10047000CF91089520913B3830913C3828173907A7
:1004800059F490913A3880913938981729F0809131
:100490003A3890E080E008958FEF9FEF0895089537
:1004A000EF92FF920F931F93CF93DF93DC01589647
:1004B000ED90FC905997E114F10479F481E090E01B
:1004C00012968D939C93139790E080E0DF91CF91EB
:1004D0001F910F91FF90EF9008951D96ED91FC9163
:1004E0001E971C968C911C97982F90950FB75A9633
:1004F0002C915A97122F127021FD6095F89420814B
:10050000112319F1282B2083E7012197F1F728E027
:10051000462F50E0308160FF1AC0382B3083E7014E
:100520002197F1F7BA0175956795215089F7112345
:1005300081F08081892380830FBF58968D919C9193
:100540000197F1F781E090E0C1CF2923DCCF392377
:10055000E5CF9081892BEFCF20913B3830913C380B
:100560002817390741F48091393890913A38891B1E
:100570008F7390E0089590E080E0089520913B38DB
:1005800030913C382817390789F490913A38809196
:100590003938981759F080913A3880913A388F5FFE
:1005A0008F7380933A3890E080E008958FEF9FEF4B
:1005B000089508950895DC011896ED91FC918481C9
:1005C0008860848308959C012B5C3F4FDC011F965B
:1005D000EC911F971E968C91E81730F4E20FF32FE1
:1005E000F11D808190E008958FEF9FEF0895FC0149
:1005F000DC01D59697858685981740F4A90FB11D23
:100600002C919F5F9787822F90E008958FEF9FEF47
:100610000895FC0186859785891B990B0895CF92D3
:10062000DF92EF92FF920F931F93CF936C014132B1
:10063000510510F040E250E0C42F7B0110E000E0D3
:100640000C1780F4D7016D917D01D601ED91FC91DD
:100650000190F081E02DC601099598012F5F3F4F71
:10066000892B49F4C801CF911F910F91FF90EF9012
:10067000DF90CF9008958901E3CFFC01A585A032DA
:1006800058F4A80FB92FB11D55966C9385858F5FCF
:10069000858781E090E0089590E080E0089590E003
:1006A00080E00895CF93DF93863108F03FC090E05B
:1006B000DC01A256B4462C912F3FC1F1FC01E85752
:1006C000F446E08130E2E39FF0011124FC5F611108
:1006D00030C026833081232399F4EC01C05CD446DA
:1006E0002881309779F1283068F57096E20FF11D76
:1006F0003FB7F8942081611128C0277F20833FBF36
:10070000865D9446FC019081992381F08C91903410
:1007100009F19038E1F0903149F4853008F0880F04
:100720009091010A809589238093010ADF91CF91EE
:100730000895643029F43481278364816223CACF09
:100740002583C8CFF0E0E0E0D3CF2860D7CF109268
:10075000A006ECCF20E4823009F420E89091920AC0
:10076000922321F36FB7F8949091800A9E7F909323
:10077000800A4091920A30E02095309550E0242381
:10078000352398ED94BF2093920A90918E0A90FFA2
:10079000FCCF9091800A91609093800A813039F467
:1007A000809150048F77809350046FBFBFCF8091AA
:1007B00051048F7780935104F8CF6F927F928F927C
:1007C0009F92AF92BF92CF92DF92EF92FF920F93E0
:1007D0001F93CF93DF931F92CDB7DEB77C013B0110
:1007E0005A01922E832EDC01ED91FC9111973097E6
:1007F00099F012962D913C91D9019C9111968C9172
:100800002085222319F02FB72187F89421E0228731
:100810009093200880932108F70183858F3F19F07A
:1008200060E00E9452036301A60CB71CCA14DB04EB
:10083000C9F4C92CD82C0C0D1D1DBB24BA94C016AC
:10084000D10639F1B982D7018D919C91BE016F5FBC
:100850007F4F0097D1F00E9429018981F601819391
:100860006F01EDCFD6018D916D018983F7018081F4
:100870009181BE016F5F7F4F009719F00E9429019F
:10088000D5CFC7010E947600D1CFC7010E94760064
:10089000E4CFD7011B968C918F3F19F061E00E9445
:1008A0005203D701ED91FC91309749F0828588235E
:1008B00031F012868085882311F081858FBF81E019
:1008C0000F90DF91CF911F910F91FF90EF90DF90EC
:1008D000CF90BF90AF909F908F907F906F90089532
:1008E0008631F0F490E0FC01E256F44620812F3F7F
:1008F000B9F0FC01E857F446E08130E2E39FF001F3
:100900001124FC5F60FF0DC02183805C9446DC01F4
:100910008C91E80FF11D808961FF05C08860808B94
:1009200008952283F2CF877FFACF0C94EC0C0F93BB
:100930001F93CF93DF938C01EB0188E2FB011192AF
:100940008A95E9F74BE050E066EC7BE9CE010E9426
:10095000750D1B8681E090E0A0E0B0E08C879D875C
:10096000AE87BF87F8014385548565857685488BBA
:10097000598B6A8B7B8B8C8B9D8BAE8BBF8B1CA218
:100980001DA21EA21FA28AE098EEACE1B3EC8C8FF0
:100990009D8FAE8FBF8F8AE098EEACE1B3E4888F75
:1009A000998FAA8FBB8F83EA9FEAA0E2BDE388A359
:1009B00099A3AAA3BBA3DF91CF911F910F91089593
:1009C0003F924F925F926F927F928F929F92AF92DF
:1009D000BF92CF92DF92EF92FF920F931F93CF932C
:1009E000DF93CDB7DEB72897CDBFDEBF8C017B018B
:1009F000FB01349680E2DF011D928A95E9F784E2DB
:100A000090E0A0E0B0E0FB0180839183A283B383F8
:100A1000F80183859485A585B685FB01848395833C
:100A2000A683B78381E090E0A0E0B0E08087918763
:100A3000A287B3870E944201D70150966D937D93A0
:100A40008D939C93539719821A821B821C821D825C
:100A50001E82F801838194810581168122E32F8310
:100A600018860115110509F453C1D80114968D910A
:100A70009C911597892BB9F11196ED91FC911297E4
:100A80008C91880F8487158611968D919C91DC013D
:100A9000ED91FC910280F381E02D41E050E0BE0138
:100AA000695F7F4F09950197F1F4F80161817281C7
:100AB000DB011896ED91FC9185818370A1F0838113
:100AC00080FF11C090E080E020E03581432F43702B
:100AD00001968138BEE39B0720F433FF06C088E00F
:100AE000858383E0848380E0FEC0413041F4DB01F4
:100AF0001C968C918E7F878390E080E0E6CF423019
:100B000021F736FFE2CF34FDECCFDB011D968C914F
:100B1000281748F4CB01820F911DDC0155968C916A
:100B200080872F5FE9CFB12CA12C96E0692E712C24
:100B300022E0322EF801848195816301CA18DB0816
:100B40008C159D0508F46C01D80111964D905C90B0
:100B500012978C91880FF201848717860084F185A3
:100B6000E02D9581937040E0C9F08160878390E02B
:100B700080E050E040E08C2C93012C193D09658108
:100B8000762F7370972E01968138AEE39A0720F482
:100B900063FF25C088E08583F20146874C151D045C
:100BA00009F0A1CF88248394912C8C0E9D1E8A0C71
:100BB0009B1C2401C401841995098C159D05E0F541
:100BC000D80111968D919C91DC01ED91FC910284EC
:100BD000F385E02D0995F40181934F01EBCF552367
:100BE000D9F0B2E07B13D8CF548367FF21C04032E5
:100BF000E8F46085C201840F911DDC01D5966C93E9
:100C00004F5F882DB0E2B81508F480E2481740F431
:100C1000348290E080E0B3CF72E09712B0CFE5CF9E
:100C2000A216B30608F4B8CF90E080E057E0A7CF53
:100C300066FFA5CF53E0A3CFAC0CBD1CF6E0AF160A
:100C4000B10408F477CF69817A81CB80DC800D8193
:100C50001E81072E000C880B990B0E942E0B2FE68D
:100C600032E143E85BE30E94BF0B2AE038EE4CE13F
:100C700051E40E94BF0BD70154966D937D938D93E1
:100C80009C935797B601DD0C880B990B0E942E0B95
:100C90002FE632E143E85BE30E94BF0B2AE038EE27
:100CA0004CE151E40E94BF0BF701608F718F828F7E
:100CB000938FB801110F880B990B0E942E0B2FE612
:100CC00032E143E85BE30E94BF0B2AE038EE4CE1DF
:100CD00051E40E94BF0BD7015C966D937D938D9379
:100CE0009C935F9781E02896CDBFDEBFDF91CF91C7
:100CF0001F910F91FF90EF90DF90CF90BF90AF903A
:100D00009F908F907F906F905F904F903F9008954D
:100D1000009709F4E8CE22EF2F8306E010E09E0151
:100D20002F5F3F4F41E050E0BE01695F7F4F0E945F
:100D3000DD03811188CFD7CEEF93FF93E3E4F8E38F
:100D40008F938FB78F939F937F9371E08081918171
:100D50008C5E9F4F80839183885E934018F08083E0
:100D600091837F5F9281970F928380E09381981F98
:100D700093839481981F94839581981F958396817E
:100D80009F5F968397819F4F978390859F4F908712
:100D900091859F4F918781E080938D0A7F919F91EC
:100DA0008F918FBF8F91FF91EF9118950F9304E072
:100DB0000C94E2060F9302E00C94E2060F9300E01D
:100DC0000C94E2060F920FB60F920BB60F921F9281
:100DD0001124FF921F932F933F934F935F936F9331
:100DE0007F938F939F93AF93BF93CF93DF93EF93B3
:100DF000FF93A0E0B8E3A00FB11DCD91DC91000FEF
:100E00000D5FA02FB0E0FC90109761F01F2D16959C
:100E100018F041F02296FBCFE991F9913097B9F3A0
:100E20000995F5CFA02FB0E0FC92FF91EF91DF91F3
:100E3000CF91BF91AF919F918F917F916F915F9172
:100E40004F913F912F911F91FF901F900F900BBEDC
:100E50000F900FBE0F900F911895EF93FF93F89896
:100E6000EFE4F8E30C944107EF93FF93F898EFE475
:100E7000F8E30C947007EF93FF93EFE4F8E30C941E
:100E80009D072F932FB72F938F939F93AF93BF936C
:100E90006894CF93DF9320E0C085D8E09089DF018C
:100EA000A90FB21FAF5ABF4F8C9120E42C838A83C5
:100EB0009F5F9F738D812785291302C08F7D8D834E
:100EC000908BDF91CF9116F00C94D701BF91AF9129
:100ED0009F918F912F912FBF2F91FF91EF91189597
:100EE0002F932FB72F933F938F939F93CF93DF939E
:100EF000C085D8E0898198818674880F3485382B25
:100F000082FD0DC0C58581E08C0F8F732685281763
:100F100091F0CE0FDF2F20E0D21F998B8587348789
:100F2000DF91CF919F918F913F912F912FBF2F9163
:100F3000FF91EF9118953064F2CF8F938FB78F9315
:100F40009F93CF93DF93C085D8E09D8188818C816A
:100F500087FDFCCF9F7B90689D83DF91CF919F9110
:100F60008F918FBF8F91FF91EF9118951F920F92E4
:100F70000FB60F9211241F932F933F934F935F93BC
:100F80006F937F938F939F93AF93BF93CF93DF9391
:100F9000EF93FF93C8EED8E3E881F981838586FF5C
:100FA00056C080FF41C0158581FF38C08E818823DF
:100FB00059F08091383880935000EB85FC8530974C
:100FC00019F08E8190E009951C831D821886E985B1
:100FD000FA85309709F009958D81882319F183E00E
:100FE0009091500090933838917090935000E88120
:100FF000F9818287FF91EF91DF91CF91BF91AF91FE
:101000009F918F917F916F915F914F913F912F9120
:101010001F910F900FBE0F901F9018951C831E827A
:101020001F82DDCF86E0DCCF80913838809350007E
:10103000EB85FC85309729F08E81882311F090E0B4
:1010400009951E821D821F82188682E0D0CF87FFFD
:101050002FC081FF1EC0887139F08A8183FF04C0D0
:101060001D82877F8A83F1CF8B818F5F8B838A81FB
:1010700088608A83A8858D81A81738F7AC0FBD2FAB
:10108000B11D1D968C91858788858F5F888783E049
:10109000AECF8585EE81E03258F4EC0FFD2FF11DC7
:1010A00085A78E818F5F8E83803288F386E09FCF05
:1010B00080E09DCF84E080934E3881E280934D386C
:1010C000109251381092523888EE93E0A0E0B0E0D0
:1010D0008093533890935438A0935538B093563832
:1010E0002AE53BE920934F383093503820E038E030
:1010F00020935738309358381092593810925A38F4
:101100001092E2381092E3388093E4389093E538F7
:10111000A093E638B093E7382CE63BE92093E0381B
:101120003093E13820E138E02093E8383093E93813
:1011300025E330E020933539309336392EE73BE90B
:10114000209337393093383910923A3910923B391D
:1011500010923C3910923D39109240391092413929
:1011600045E350E060E070E04093423950934339EA
:10117000609344397093453920EE38E320933E392B
:1011800030933F391092673910926839109269395B
:1011900010926A3910926B3910926C3910926D3935
:1011A00010926E3910926F39109270391092713915
:1011B00010927239109273391092743910927539F5
:1011C00010927639109277391092783910927939D5
:1011D00010927A3910927B3910927C3910927D39B5
:1011E00010927E3910927F39109280391092813995
:1011F0001092823910928339109284391092893971
:1012000010928A3910928B3910928C3910928D3944
:1012100010928E391092973910929839109299390C
:1012200010929A3910929B3910929C391092A539DC
:101230001092A6391092AB391092AC391092AD3998
:101240001092AE391092B3391092B4391092B93964
:101250001092BA391092BB391092BC391092C13930
:101260001092C2391092C7391092C8391092C939F8
:101270001092CA391092CF391092D0391092D539C4
:101280001092D6391092D7391092D8391092DD3990
:101290001092DE391092E3391092E4391092E53958
:1012A0001092E6391092EB391092EC3922E020933B
:1012B000FC391092FD391092FE391092FF391092CC
:1012C000003A1092013A1092023A1092033A1092A8
:1012D000043A1092053A1092063A1092073A109288
:1012E000083A1092093A10920A3A10920B3A109268
:1012F0000C3A10920D3A10920E3A10920F3A109248
:10130000103A1092113A1092123A1092133A109227
:10131000ED3910924E3910924F3980935039909395
:101320005139A0935239B093533988EB9BE980939C
:101330004C3990934D3910925E3910925F3910926A
:1013400060391092613910926239109263391092AB
:10135000643910926539609166396E7F6D7F609354
:1013600066396695617081E0682781E10E945203C9
:1013700061E081E10E94700480E28093583984E446
:1013800094E08093593990935A3960E080E10E944B
:1013900070048091663981FD04C061E080E10E94A3
:1013A000520380E1809354398093553988E494E066
:1013B0008093563990935739089588ED90E084BF13
:1013C00090936100E0E0F6E083E582838AE0858324
:1013D00080E2838381E080838093030A9EEF909371
:1013E000260A9093270A9BE09093000AE0E8FAE02F
:1013F0002DEF31E026A737A7118290E892838487EA
:1014000081E1808378941092413810924238809123
:101410005B3880FF12C08FE498E30E942502E091C0
:101420005738F09158381682158280EC8483809169
:101430005D3880935C3810925B381FB7F894E09168
:101440005738F0915838168283E087838AE09AE112
:1014500080879187148680E8858380EC86839091CD
:101460005A38C091593880910102992309F441C03A
:10147000816080930102C90FDD27DD1FCC0FDD1FC6
:10148000CC0FDD1FCE5DD44661E088810E947004E0
:1014900062E089810E9470041FBF80914138909161
:1014A000423882309105E8F30E9442010E944201D5
:1014B0000E942C0B20913D3830913E3840913F38AE
:1014C000509140380E94BF0A20E030E04AEF53E4D8
:1014D0000E94BA0B18160CF70E9442010E942C0BB6
:1014E00060933D3870933E3880933F3890934038F6
:1014F000D4CF8E7FBECF88EB9BE980934C399093FD
:101500004D3980913B3890913C388C54994371F41B
:10151000E0915B39F0915C39908180915D398095E3
:101520008923808310923B3810923C380895A1E2C1
:101530001A2EAA1BBB1BFD010DC0AA1FBB1FEE1F4D
:10154000FF1FA217B307E407F50720F0A21BB30B98
:10155000E40BF50B661F771F881F991F1A9469F714
:1015600060957095809590959B01AC01BD01CF0170
:101570000895EE0FFF1F0590F491E02D0994505847
:10158000BB27AA270E94D70A0C94800B0E94720BDB
:1015900038F00E94790B20F039F49F3F19F426F4BB
:1015A0000C946F0B0EF4E095E7FB0C94690BE92F9C
:1015B0000E94910B58F3BA176207730784079507C7
:1015C00020F079F4A6F50C94B30B0EF4E0950B2EF5
:1015D000BA2FA02D0B01B90190010C01CA01A00185
:1015E0001124FF27591B99F0593F50F4503E68F1E0
:1015F0001A16F040A22F232F342F4427585FF3CF21
:10160000469537952795A795F0405395C9F77EF4F1
:101610001F16BA0B620B730B840BBAF09150A1F03A
:10162000FF0FBB1F661F771F881FC2F70EC0BA0FC0
:10163000621F731F841F48F4879577956795B79548
:10164000F7959E3F08F0B0CF9395880F08F0992743
:10165000EE0F979587950895E89409C097FB3EF49F
:1016600090958095709561957F4F8F4F9F4F9923EF
:10167000A9F0F92F96E9BB279395F695879577956D
:101680006795B795F111F8CFFAF4BB0F11F460FF2D
:101690001BC06F5F7F4F8F4F9F4F16C0882311F085
:1016A00096E911C0772321F09EE8872F762F05C099
:1016B000662371F096E8862F70E060E02AF09A9534
:1016C000660F771F881FDAF7880F9695879597F929
:1016D000089597F99F6780E870E060E008959FEFB4
:1016E00080EC089500240A941616170618060906B9
:1016F000089500240A941216130614060506089588
:10170000092E0394000C11F4882352F0BB0F40F40F
:10171000BF2B11F460FF04C06F5F7F4F8F4F9F4F4F
:10172000089557FD9058440F551F59F05F3F71F0D1
:101730004795880F97FB991F61F09F3F79F0879538
:101740000895121613061406551FF2CF4695F1DFC1
:1017500008C0161617061806991FF1CF8695710551
:10176000610508940895E894BB2766277727CB0185
:1017700097F908950E942C0C08F48FEF08950E94A9
:10178000D20B0C94800B0E94720B38F00E94790BE4
:1017900020F0952311F00C94690B0C946F0B11241D
:1017A0000C94B40B0E94910B70F3959FC1F3950FAD
:1017B00050E0551F629FF001729FBB27F00DB11DD5
:1017C000639FAA27F00DB11DAA1F649F6627B00D65
:1017D000A11D661F829F2227B00DA11D621F739F4E
:1017E000B00DA11D621F839FA00D611D221F749F5C
:1017F0003327A00D611D231F849F600D211D822FA3
:10180000762F6A2F11249F5750409AF0F1F08823C9
:101810004AF0EE0FFF1FBB1F661F771F881F9150F6
:101820005040A9F79E3F510580F00C94690B0C9431
:10183000B40B5F3FE4F3983ED4F3869577956795B4
:10184000B795F795E7959F5FC1F7FE2B880F911D20
:101850009695879597F90895990F0008550FAA0B4B
:10186000E0E8FEEF16161706E807F907C0F01216B3
:101870001306E407F50798F0621B730B840B950BB6
:1018800039F40A2661F0232B242B252B21F408950B
:101890000A2609F4A140A6958FEF811D811D0895A8
:1018A0000F931F93CF93DF938230910510F482E062
:1018B00090E0E091163AF091173A30E020E0B0E085
:1018C000A0E0309799F42115310509F44AC0281B8E
:1018D000390B24303105D8F58A819B81611571055A
:1018E00089F1FB0182839383FE0111C04081518104
:1018F0000281138148175907E0F04817590799F4F6
:10190000109761F012960C93129713961C933296CF
:10191000CF01DF91CF911F910F9108950093163A57
:101920001093173AF4CF2115310551F042175307A0
:1019300038F0A901DB019A01BD01DF01F801C1CF37
:10194000EF01F9CF8093163A9093173ACDCFFE016D
:10195000E20FF31F81939193225031092883398339
:10196000D7CF2091143A3091153A232B41F420918E
:101970000838309109382093143A3093153A209161
:101980000638309107382115310541F42DB73EB79F
:1019900040910A3850910B38241B350BE091143AD2
:1019A000F091153AE217F307A0F42E1B3F0B28170E
:1019B000390778F0AC014E5F5F4F2417350748F0C8
:1019C0004E0F5F1F4093143A5093153A81939193B1
:1019D0009FCFF0E0E0E09CCFCF93DF930097E9F05A
:1019E000FC01329712821382A091163AB091173AF5
:1019F000ED0130E020E01097A1F420813181820FC9
:101A0000931F2091143A3091153A2817390709F09D
:101A100061C0E093143AF093153ADF91CF910895A5
:101A2000EA01CE17DF07E8F54A815B819E01411587
:101A30005105B1F7E901EA83FB8349915991C40F3C
:101A4000D51FEC17FD0761F4808191810296840F08
:101A5000951FE90188839983828193818A839B837F
:101A6000F0E0E0E012968D919C9113970097B9F504
:101A70002D913C911197CD010296820F931F2091D9
:101A8000143A3091153A2817390739F6309751F53D
:101A90001092163A1092173AA093143AB093153A4E
:101AA000BCCFC283D38340815181840F951FC81757
:101AB000D90761F44E5F5F4F88819981480F591FA4
:101AC000408351838A819B818283938321153105D1
:101AD00009F0B0CFE093163AF093173A9ECFFD018C
:101AE000DC01C0CF12821382D7CFFB01DC01415051
:101AF000504048F001900D920020C9F701C01D929E
:101B000041505040E0F7089510E0CFE3D0E004C02A
:101B1000FE010E94B90A2196C034D107C9F7F89492
:021B2000FFCFF5
:101B220009080A0B121314001010800000000000B4
:101B320000101010404000000000000010000405DA
:101B4200060707060504030201000001020304055B
:101B52000102030000000000D8014E017B012502B2
:101B6200AC018A019E01000000003D030F034F03F8
:101B7200DB020903F702E30200000000D902950428
:101B8200DA02E004970400000000010101010101F2
:101B92000101020202020202000000001020408045
:101BA20080402010080402010102040810200204EF
:101BB20008010000000050024E014F034F02AC0228
:0C1BC200BE023A024144584C3334330058
:0C1BCE00283818380C380000183A800045
:00000001FF
